{
  "contractName": "EnvironmentalCertification",
  "abi": [
    {
      "inputs": [],
      "stateMutability": "nonpayable",
      "type": "constructor"
    },
    {
      "anonymous": false,
      "inputs": [
        {
          "indexed": false,
          "internalType": "address",
          "name": "_companyAddress",
          "type": "address"
        }
      ],
      "name": "companyCertified",
      "type": "event"
    },
    {
      "inputs": [
        {
          "internalType": "address",
          "name": "",
          "type": "address"
        }
      ],
      "name": "certifiedCompanies",
      "outputs": [
        {
          "internalType": "bool",
          "name": "",
          "type": "bool"
        }
      ],
      "stateMutability": "view",
      "type": "function"
    },
    {
      "inputs": [],
      "name": "owner",
      "outputs": [
        {
          "internalType": "address",
          "name": "",
          "type": "address"
        }
      ],
      "stateMutability": "view",
      "type": "function"
    },
    {
      "inputs": [
        {
          "internalType": "address",
          "name": "",
          "type": "address"
        }
      ],
      "name": "purchasedQuantities",
      "outputs": [
        {
          "internalType": "uint256",
          "name": "",
          "type": "uint256"
        }
      ],
      "stateMutability": "view",
      "type": "function"
    },
    {
      "inputs": [
        {
          "internalType": "address",
          "name": "",
          "type": "address"
        },
        {
          "internalType": "uint256",
          "name": "",
          "type": "uint256"
        }
      ],
      "name": "transactions",
      "outputs": [
        {
          "internalType": "string",
          "name": "date",
          "type": "string"
        },
        {
          "internalType": "address",
          "name": "recyclingCenter",
          "type": "address"
        },
        {
          "internalType": "string",
          "name": "garbageType",
          "type": "string"
        },
        {
          "internalType": "uint256",
          "name": "purchasedQuantity",
          "type": "uint256"
        },
        {
          "internalType": "int256",
          "name": "price",
          "type": "int256"
        }
      ],
      "stateMutability": "view",
      "type": "function"
    },
    {
      "inputs": [
        {
          "internalType": "address",
          "name": "_companyAddress",
          "type": "address"
        }
      ],
      "name": "certifyCompany",
      "outputs": [],
      "stateMutability": "nonpayable",
      "type": "function"
    },
    {
      "inputs": [
        {
          "internalType": "address",
          "name": "_companyAddress",
          "type": "address"
        }
      ],
      "name": "revokeCertification",
      "outputs": [],
      "stateMutability": "nonpayable",
      "type": "function"
    },
    {
      "inputs": [
        {
          "internalType": "address",
          "name": "_companyAddress",
          "type": "address"
        }
      ],
      "name": "isCertified",
      "outputs": [
        {
          "internalType": "bool",
          "name": "",
          "type": "bool"
        }
      ],
      "stateMutability": "view",
      "type": "function"
    },
    {
      "inputs": [
        {
          "components": [
            {
              "internalType": "string",
              "name": "date",
              "type": "string"
            },
            {
              "internalType": "address",
              "name": "recyclingCenter",
              "type": "address"
            },
            {
              "internalType": "string",
              "name": "garbageType",
              "type": "string"
            },
            {
              "internalType": "uint256",
              "name": "purchasedQuantity",
              "type": "uint256"
            },
            {
              "internalType": "int256",
              "name": "price",
              "type": "int256"
            }
          ],
          "internalType": "struct EnvironmentalCertification.transation",
          "name": "trans",
          "type": "tuple"
        }
      ],
      "name": "recordTransaction",
      "outputs": [],
      "stateMutability": "nonpayable",
      "type": "function"
    },
    {
      "inputs": [
        {
          "internalType": "address",
          "name": "_companyAddress",
          "type": "address"
        }
      ],
      "name": "getPurchasedQuantity",
      "outputs": [
        {
          "internalType": "uint256",
          "name": "",
          "type": "uint256"
        }
      ],
      "stateMutability": "view",
      "type": "function"
    }
  ],
  "bytecode": "0x608060405234801561000f575f80fd5b50335f806101000a81548173ffffffffffffffffffffffffffffffffffffffff021916908373ffffffffffffffffffffffffffffffffffffffff1602179055506111158061005c5f395ff3fe608060405234801561000f575f80fd5b5060043610610091575f3560e01c80638da5cb5b116100645780638da5cb5b14610145578063aa48c3df14610163578063b83cc3b314610193578063d2b181f6146101af578063f23b4884146101df57610091565b806308f2229d1461009557806314538128146100c55780635afa5036146100f9578063726ba20a14610129575b5f80fd5b6100af60048036038101906100aa91906108a2565b6101fb565b6040516100bc91906108e5565b60405180910390f35b6100df60048036038101906100da9190610928565b610210565b6040516100f0959493929190610a17565b60405180910390f35b610113600480360381019061010e91906108a2565b610387565b6040516101209190610a90565b60405180910390f35b610143600480360381019061013e9190610cc8565b6103d9565b005b61014d6105b2565b60405161015a9190610d0f565b60405180910390f35b61017d600480360381019061017891906108a2565b6105d5565b60405161018a91906108e5565b60405180910390f35b6101ad60048036038101906101a891906108a2565b61061b565b005b6101c960048036038101906101c491906108a2565b6106ff565b6040516101d69190610a90565b60405180910390f35b6101f960048036038101906101f491906108a2565b61071c565b005b6003602052805f5260405f205f915090505481565b6002602052815f5260405f208181548110610229575f80fd5b905f5260205f2090600502015f9150915050805f01805461024990610d55565b80601f016020809104026020016040519081016040528092919081815260200182805461027590610d55565b80156102c05780601f10610297576101008083540402835291602001916102c0565b820191905f5260205f20905b8154815290600101906020018083116102a357829003601f168201915b505050505090806001015f9054906101000a900473ffffffffffffffffffffffffffffffffffffffff16908060020180546102fa90610d55565b80601f016020809104026020016040519081016040528092919081815260200182805461032690610d55565b80156103715780601f1061034857610100808354040283529160200191610371565b820191905f5260205f20905b81548152906001019060200180831161035457829003601f168201915b5050505050908060030154908060040154905085565b5f60015f8373ffffffffffffffffffffffffffffffffffffffff1673ffffffffffffffffffffffffffffffffffffffff1681526020019081526020015f205f9054906101000a900460ff169050919050565b5f8054906101000a900473ffffffffffffffffffffffffffffffffffffffff1673ffffffffffffffffffffffffffffffffffffffff163373ffffffffffffffffffffffffffffffffffffffff1614610466576040517f08c379a000000000000000000000000000000000000000000000000000000000815260040161045d90610df5565b60405180910390fd5b60025f826020015173ffffffffffffffffffffffffffffffffffffffff1673ffffffffffffffffffffffffffffffffffffffff1681526020019081526020015f2081908060018154018082558091505060019003905f5260205f2090600502015f909190919091505f820151815f0190816104e19190610fb0565b506020820151816001015f6101000a81548173ffffffffffffffffffffffffffffffffffffffff021916908373ffffffffffffffffffffffffffffffffffffffff160217905550604082015181600201908161053d9190610fb0565b5060608201518160030155608082015181600401555050806060015160035f836020015173ffffffffffffffffffffffffffffffffffffffff1673ffffffffffffffffffffffffffffffffffffffff1681526020019081526020015f205f8282546105a891906110ac565b9250508190555050565b5f8054906101000a900473ffffffffffffffffffffffffffffffffffffffff1681565b5f60035f8373ffffffffffffffffffffffffffffffffffffffff1673ffffffffffffffffffffffffffffffffffffffff1681526020019081526020015f20549050919050565b5f8054906101000a900473ffffffffffffffffffffffffffffffffffffffff1673ffffffffffffffffffffffffffffffffffffffff163373ffffffffffffffffffffffffffffffffffffffff16146106a8576040517f08c379a000000000000000000000000000000000000000000000000000000000815260040161069f90610df5565b60405180910390fd5b5f60015f8373ffffffffffffffffffffffffffffffffffffffff1673ffffffffffffffffffffffffffffffffffffffff1681526020019081526020015f205f6101000a81548160ff02191690831515021790555050565b6001602052805f5260405f205f915054906101000a900460ff1681565b5f8054906101000a900473ffffffffffffffffffffffffffffffffffffffff1673ffffffffffffffffffffffffffffffffffffffff163373ffffffffffffffffffffffffffffffffffffffff16146107a9576040517f08c379a00000000000000000000000000000000000000000000000000000000081526004016107a090610df5565b60405180910390fd5b6001805f8373ffffffffffffffffffffffffffffffffffffffff1673ffffffffffffffffffffffffffffffffffffffff1681526020019081526020015f205f6101000a81548160ff0219169083151502179055507f91dd0ce0aeaa325913aa4f279b3b47c44161ee141b1a274d0b8ceef6bf7b18bc8160405161082c9190610d0f565b60405180910390a150565b5f604051905090565b5f80fd5b5f80fd5b5f73ffffffffffffffffffffffffffffffffffffffff82169050919050565b5f61087182610848565b9050919050565b61088181610867565b811461088b575f80fd5b50565b5f8135905061089c81610878565b92915050565b5f602082840312156108b7576108b6610840565b5b5f6108c48482850161088e565b91505092915050565b5f819050919050565b6108df816108cd565b82525050565b5f6020820190506108f85f8301846108d6565b92915050565b610907816108cd565b8114610911575f80fd5b50565b5f81359050610922816108fe565b92915050565b5f806040838503121561093e5761093d610840565b5b5f61094b8582860161088e565b925050602061095c85828601610914565b9150509250929050565b5f81519050919050565b5f82825260208201905092915050565b5f5b8381101561099d578082015181840152602081019050610982565b5f8484015250505050565b5f601f19601f8301169050919050565b5f6109c282610966565b6109cc8185610970565b93506109dc818560208601610980565b6109e5816109a8565b840191505092915050565b6109f981610867565b82525050565b5f819050919050565b610a11816109ff565b82525050565b5f60a0820190508181035f830152610a2f81886109b8565b9050610a3e60208301876109f0565b8181036040830152610a5081866109b8565b9050610a5f60608301856108d6565b610a6c6080830184610a08565b9695505050505050565b5f8115159050919050565b610a8a81610a76565b82525050565b5f602082019050610aa35f830184610a81565b92915050565b5f80fd5b7f4e487b71000000000000000000000000000000000000000000000000000000005f52604160045260245ffd5b610ae3826109a8565b810181811067ffffffffffffffff82111715610b0257610b01610aad565b5b80604052505050565b5f610b14610837565b9050610b208282610ada565b919050565b5f80fd5b5f80fd5b5f80fd5b5f67ffffffffffffffff821115610b4b57610b4a610aad565b5b610b54826109a8565b9050602081019050919050565b828183375f83830152505050565b5f610b81610b7c84610b31565b610b0b565b905082815260208101848484011115610b9d57610b9c610b2d565b5b610ba8848285610b61565b509392505050565b5f82601f830112610bc457610bc3610b29565b5b8135610bd4848260208601610b6f565b91505092915050565b610be6816109ff565b8114610bf0575f80fd5b50565b5f81359050610c0181610bdd565b92915050565b5f60a08284031215610c1c57610c1b610aa9565b5b610c2660a0610b0b565b90505f82013567ffffffffffffffff811115610c4557610c44610b25565b5b610c5184828501610bb0565b5f830152506020610c648482850161088e565b602083015250604082013567ffffffffffffffff811115610c8857610c87610b25565b5b610c9484828501610bb0565b6040830152506060610ca884828501610914565b6060830152506080610cbc84828501610bf3565b60808301525092915050565b5f60208284031215610cdd57610cdc610840565b5b5f82013567ffffffffffffffff811115610cfa57610cf9610844565b5b610d0684828501610c07565b91505092915050565b5f602082019050610d225f8301846109f0565b92915050565b7f4e487b71000000000000000000000000000000000000000000000000000000005f52602260045260245ffd5b5f6002820490506001821680610d6c57607f821691505b602082108103610d7f57610d7e610d28565b5b50919050565b7f4f6e6c792074686520636f6e7472616374206f776e65722063616e20706572665f8201527f6f726d207468697320616374696f6e0000000000000000000000000000000000602082015250565b5f610ddf602f83610970565b9150610dea82610d85565b604082019050919050565b5f6020820190508181035f830152610e0c81610dd3565b9050919050565b5f819050815f5260205f209050919050565b5f6020601f8301049050919050565b5f82821b905092915050565b5f60088302610e6f7fffffffffffffffffffffffffffffffffffffffffffffffffffffffffffffffff82610e34565b610e798683610e34565b95508019841693508086168417925050509392505050565b5f819050919050565b5f610eb4610eaf610eaa846108cd565b610e91565b6108cd565b9050919050565b5f819050919050565b610ecd83610e9a565b610ee1610ed982610ebb565b848454610e40565b825550505050565b5f90565b610ef5610ee9565b610f00818484610ec4565b505050565b5b81811015610f2357610f185f82610eed565b600181019050610f06565b5050565b601f821115610f6857610f3981610e13565b610f4284610e25565b81016020851015610f51578190505b610f65610f5d85610e25565b830182610f05565b50505b505050565b5f82821c905092915050565b5f610f885f1984600802610f6d565b1980831691505092915050565b5f610fa08383610f79565b9150826002028217905092915050565b610fb982610966565b67ffffffffffffffff811115610fd257610fd1610aad565b5b610fdc8254610d55565b610fe7828285610f27565b5f60209050601f831160018114611018575f8415611006578287015190505b6110108582610f95565b865550611077565b601f19841661102686610e13565b5f5b8281101561104d57848901518255600182019150602085019450602081019050611028565b8683101561106a5784890151611066601f891682610f79565b8355505b6001600288020188555050505b505050505050565b7f4e487b71000000000000000000000000000000000000000000000000000000005f52601160045260245ffd5b5f6110b6826108cd565b91506110c1836108cd565b92508282019050808211156110d9576110d861107f565b5b9291505056fea2646970667358221220d159f36842e39b63c239e9a82eec953af772c70f40e9a38a3f86a78a525a7eab64736f6c63430008140033",
  "immutableReferences": {},
  "source": "// SPDX-License-Identifier: MIT\r\npragma solidity ^0.8.0;\r\ncontract EnvironmentalCertification {\r\n    address public owner;\r\n    struct transation{\r\n        string date;\r\n        address  recyclingCenter;\r\n        string garbageType;\r\n        uint256  purchasedQuantity;\r\n        int price;\r\n    }\r\n    mapping(address => bool) public certifiedCompanies;\r\n    mapping(address => transation[]) public transactions;\r\n    mapping(address => uint256)public purchasedQuantities;\r\n\r\n    modifier onlyOwner() {\r\n        require(msg.sender == owner, \"Only the contract owner can perform this action\");\r\n        _;\r\n    }\r\n\r\n    constructor() {\r\n        owner = msg.sender;\r\n    }\r\n\r\n    event companyCertified(\r\n        address _companyAddress\r\n    );\r\n\r\n    function certifyCompany(address _companyAddress) public onlyOwner {\r\n        certifiedCompanies[_companyAddress] = true;\r\n        emit companyCertified(_companyAddress);\r\n    }\r\n\r\n    function revokeCertification(address _companyAddress) public onlyOwner {\r\n        certifiedCompanies[_companyAddress] = false;\r\n    }\r\n\r\n    function isCertified(address _companyAddress) public view returns (bool) {\r\n        return certifiedCompanies[_companyAddress];\r\n    }\r\n    function recordTransaction(transation memory trans) public onlyOwner {\r\n        //require(certifiedCompanies[_companyAddress], \"Company must be certified to record purchases\"); \r\n        transactions[trans.recyclingCenter].push(trans);\r\n        purchasedQuantities[trans.recyclingCenter] += trans.purchasedQuantity;\r\n    }\r\n    function getPurchasedQuantity(address _companyAddress) public view returns (uint256) {\r\n        return purchasedQuantities[_companyAddress];\r\n    }\r\n}",
  "sourcePath": "C:\\Users\\akilh\\OneDrive\\Bureau\\STAGE FH\\bricolini 2\\bricolini\\Blockchain\\contracts\\certification.sol",
  "compiler": {
    "name": "solc",
    "version": "0.8.20+commit.a1b79de6.Emscripten.clang"
  },
  "schemaVersion": "3.4.14",
  "updatedAt": "2023-07-20T15:00:13.521Z",
  "devdoc": {
    "kind": "dev",
    "methods": {},
    "version": 1
  },
  "userdoc": {
    "kind": "user",
    "methods": {},
    "version": 1
  }
}