{
  "contractName": "EnvironmentalCertification",
  "abi": [
    {
      "inputs": [],
      "stateMutability": "nonpayable",
      "type": "constructor"
    },
    {
      "inputs": [
        {
          "internalType": "address",
          "name": "",
          "type": "address"
        }
      ],
      "name": "certifiedCompanies",
      "outputs": [
        {
          "internalType": "bool",
          "name": "",
          "type": "bool"
        }
      ],
      "stateMutability": "view",
      "type": "function"
    },
    {
      "inputs": [],
      "name": "owner",
      "outputs": [
        {
          "internalType": "address",
          "name": "",
          "type": "address"
        }
      ],
      "stateMutability": "view",
      "type": "function"
    },
    {
      "inputs": [
        {
          "internalType": "address",
          "name": "",
          "type": "address"
        }
      ],
      "name": "purchasedQuantities",
      "outputs": [
        {
          "internalType": "uint256",
          "name": "",
          "type": "uint256"
        }
      ],
      "stateMutability": "view",
      "type": "function"
    },
    {
      "inputs": [
        {
          "internalType": "address",
          "name": "_companyAddress",
          "type": "address"
        }
      ],
      "name": "certifyCompany",
      "outputs": [],
      "stateMutability": "nonpayable",
      "type": "function"
    },
    {
      "inputs": [
        {
          "internalType": "address",
          "name": "_companyAddress",
          "type": "address"
        }
      ],
      "name": "revokeCertification",
      "outputs": [],
      "stateMutability": "nonpayable",
      "type": "function"
    },
    {
      "inputs": [
        {
          "internalType": "address",
          "name": "_companyAddress",
          "type": "address"
        }
      ],
      "name": "isCertified",
      "outputs": [
        {
          "internalType": "bool",
          "name": "",
          "type": "bool"
        }
      ],
      "stateMutability": "view",
      "type": "function"
    },
    {
      "inputs": [
        {
          "internalType": "address",
          "name": "_companyAddress",
          "type": "address"
        },
        {
          "internalType": "uint256",
          "name": "_quantity",
          "type": "uint256"
        }
      ],
      "name": "recordPurchasedQuantity",
      "outputs": [],
      "stateMutability": "nonpayable",
      "type": "function"
    },
    {
      "inputs": [
        {
          "internalType": "address",
          "name": "_companyAddress",
          "type": "address"
        }
      ],
      "name": "getPurchasedQuantity",
      "outputs": [
        {
          "internalType": "uint256",
          "name": "",
          "type": "uint256"
        }
      ],
      "stateMutability": "view",
      "type": "function"
    }
  ],
  "bytecode": "0x608060405234801561000f575f80fd5b50335f806101000a81548173ffffffffffffffffffffffffffffffffffffffff021916908373ffffffffffffffffffffffffffffffffffffffff1602179055506108068061005c5f395ff3fe608060405234801561000f575f80fd5b5060043610610086575f3560e01c8063b83cc3b311610059578063b83cc3b314610138578063cb4cf27014610154578063d2b181f614610170578063f23b4884146101a057610086565b806308f2229d1461008a5780635afa5036146100ba5780638da5cb5b146100ea578063aa48c3df14610108575b5f80fd5b6100a4600480360381019061009f91906105b3565b6101bc565b6040516100b191906105f6565b60405180910390f35b6100d460048036038101906100cf91906105b3565b6101d1565b6040516100e19190610629565b60405180910390f35b6100f2610223565b6040516100ff9190610651565b60405180910390f35b610122600480360381019061011d91906105b3565b610246565b60405161012f91906105f6565b60405180910390f35b610152600480360381019061014d91906105b3565b61028c565b005b61016e60048036038101906101699190610694565b610370565b005b61018a600480360381019061018591906105b3565b610454565b6040516101979190610629565b60405180910390f35b6101ba60048036038101906101b591906105b3565b610471565b005b6002602052805f5260405f205f915090505481565b5f60015f8373ffffffffffffffffffffffffffffffffffffffff1673ffffffffffffffffffffffffffffffffffffffff1681526020019081526020015f205f9054906101000a900460ff169050919050565b5f8054906101000a900473ffffffffffffffffffffffffffffffffffffffff1681565b5f60025f8373ffffffffffffffffffffffffffffffffffffffff1673ffffffffffffffffffffffffffffffffffffffff1681526020019081526020015f20549050919050565b5f8054906101000a900473ffffffffffffffffffffffffffffffffffffffff1673ffffffffffffffffffffffffffffffffffffffff163373ffffffffffffffffffffffffffffffffffffffff1614610319576040517f08c379a000000000000000000000000000000000000000000000000000000000815260040161031090610752565b60405180910390fd5b5f60015f8373ffffffffffffffffffffffffffffffffffffffff1673ffffffffffffffffffffffffffffffffffffffff1681526020019081526020015f205f6101000a81548160ff02191690831515021790555050565b5f8054906101000a900473ffffffffffffffffffffffffffffffffffffffff1673ffffffffffffffffffffffffffffffffffffffff163373ffffffffffffffffffffffffffffffffffffffff16146103fd576040517f08c379a00000000000000000000000000000000000000000000000000000000081526004016103f490610752565b60405180910390fd5b8060025f8473ffffffffffffffffffffffffffffffffffffffff1673ffffffffffffffffffffffffffffffffffffffff1681526020019081526020015f205f828254610449919061079d565b925050819055505050565b6001602052805f5260405f205f915054906101000a900460ff1681565b5f8054906101000a900473ffffffffffffffffffffffffffffffffffffffff1673ffffffffffffffffffffffffffffffffffffffff163373ffffffffffffffffffffffffffffffffffffffff16146104fe576040517f08c379a00000000000000000000000000000000000000000000000000000000081526004016104f590610752565b60405180910390fd5b6001805f8373ffffffffffffffffffffffffffffffffffffffff1673ffffffffffffffffffffffffffffffffffffffff1681526020019081526020015f205f6101000a81548160ff02191690831515021790555050565b5f80fd5b5f73ffffffffffffffffffffffffffffffffffffffff82169050919050565b5f61058282610559565b9050919050565b61059281610578565b811461059c575f80fd5b50565b5f813590506105ad81610589565b92915050565b5f602082840312156105c8576105c7610555565b5b5f6105d58482850161059f565b91505092915050565b5f819050919050565b6105f0816105de565b82525050565b5f6020820190506106095f8301846105e7565b92915050565b5f8115159050919050565b6106238161060f565b82525050565b5f60208201905061063c5f83018461061a565b92915050565b61064b81610578565b82525050565b5f6020820190506106645f830184610642565b92915050565b610673816105de565b811461067d575f80fd5b50565b5f8135905061068e8161066a565b92915050565b5f80604083850312156106aa576106a9610555565b5b5f6106b78582860161059f565b92505060206106c885828601610680565b9150509250929050565b5f82825260208201905092915050565b7f4f6e6c792074686520636f6e7472616374206f776e65722063616e20706572665f8201527f6f726d207468697320616374696f6e0000000000000000000000000000000000602082015250565b5f61073c602f836106d2565b9150610747826106e2565b604082019050919050565b5f6020820190508181035f83015261076981610730565b9050919050565b7f4e487b71000000000000000000000000000000000000000000000000000000005f52601160045260245ffd5b5f6107a7826105de565b91506107b2836105de565b92508282019050808211156107ca576107c9610770565b5b9291505056fea264697066735822122096ab6032eb3214f35c82120b39e827a832c25c0f438a40e5bc6898cc2b94bf9964736f6c63430008140033",
  "immutableReferences": {},
  "source": "// SPDX-License-Identifier: MIT\r\npragma solidity ^0.8.0;\r\ncontract EnvironmentalCertification {\r\n    address public owner;\r\n    mapping(address => bool) public certifiedCompanies;\r\n    mapping(address => uint256) public purchasedQuantities;\r\n\r\n    modifier onlyOwner() {\r\n        require(msg.sender == owner, \"Only the contract owner can perform this action\");\r\n        _;\r\n    }\r\n\r\n    constructor() {\r\n        owner = msg.sender;\r\n    }\r\n\r\n    function certifyCompany(address _companyAddress) public onlyOwner {\r\n        certifiedCompanies[_companyAddress] = true;\r\n    }\r\n\r\n    function revokeCertification(address _companyAddress) public onlyOwner {\r\n        certifiedCompanies[_companyAddress] = false;\r\n    }\r\n\r\n    function isCertified(address _companyAddress) public view returns (bool) {\r\n        return certifiedCompanies[_companyAddress];\r\n    }\r\n    function recordPurchasedQuantity(address _companyAddress, uint256 _quantity) public onlyOwner {\r\n        //require(certifiedCompanies[_companyAddress], \"Company must be certified to record purchases\"); \r\n        purchasedQuantities[_companyAddress] += _quantity;\r\n    }\r\n    function getPurchasedQuantity(address _companyAddress) public view returns (uint256) {\r\n        return purchasedQuantities[_companyAddress];\r\n    }\r\n}",
  "sourcePath": "C:\\Users\\akilh\\OneDrive\\Bureau\\STAGE FH\\Blockchain\\contracts\\certification.sol",
  "compiler": {
    "name": "solc",
    "version": "0.8.20+commit.a1b79de6.Emscripten.clang"
  },
  "schemaVersion": "3.4.14",
  "updatedAt": "2023-07-20T13:58:39.904Z",
  "devdoc": {
    "kind": "dev",
    "methods": {},
    "version": 1
  },
  "userdoc": {
    "kind": "user",
    "methods": {},
    "version": 1
  }
}