{
  "contractName": "TransactionManagement",
  "abi": [
    {
      "inputs": [
        {
          "internalType": "uint256",
          "name": "date",
          "type": "uint256"
        },
        {
          "internalType": "string",
          "name": "wasteType",
          "type": "string"
        },
        {
          "internalType": "uint256",
          "name": "quantity",
          "type": "uint256"
        },
        {
          "internalType": "uint256",
          "name": "price",
          "type": "uint256"
        }
      ],
      "name": "addTransaction",
      "outputs": [],
      "stateMutability": "nonpayable",
      "type": "function"
    },
    {
      "inputs": [],
      "name": "getTransactions",
      "outputs": [
        {
          "components": [
            {
              "internalType": "uint256",
              "name": "date",
              "type": "uint256"
            },
            {
              "internalType": "string",
              "name": "wasteType",
              "type": "string"
            },
            {
              "internalType": "uint256",
              "name": "quantity",
              "type": "uint256"
            },
            {
              "internalType": "uint256",
              "name": "price",
              "type": "uint256"
            }
          ],
          "internalType": "struct TransactionManagement.Transaction[]",
          "name": "",
          "type": "tuple[]"
        }
      ],
      "stateMutability": "view",
      "type": "function"
    }
  ],
  "bytecode": "0x608060405234801561001057600080fd5b50610986806100206000396000f3fe608060405234801561001057600080fd5b50600436106100365760003560e01c80635bec51811461003b57806383920e9014610057575b600080fd5b6100556004803603810190610050919061041a565b610075565b005b61005f61013f565b60405161006c9190610650565b60405180910390f35b600060405180608001604052808681526020018581526020018481526020018381525090506000803373ffffffffffffffffffffffffffffffffffffffff1673ffffffffffffffffffffffffffffffffffffffff168152602001908152602001600020819080600181540180825580915050600190039060005260206000209060040201600090919091909150600082015181600001556020820151816001019081610121919061087e565b50604082015181600201556060820151816003015550505050505050565b60606000803373ffffffffffffffffffffffffffffffffffffffff1673ffffffffffffffffffffffffffffffffffffffff168152602001908152602001600020805480602002602001604051908101604052809291908181526020016000905b828210156102815783829060005260206000209060040201604051806080016040529081600082015481526020016001820180546101dc906106a1565b80601f0160208091040260200160405190810160405280929190818152602001828054610208906106a1565b80156102555780601f1061022a57610100808354040283529160200191610255565b820191906000526020600020905b81548152906001019060200180831161023857829003601f168201915b50505050508152602001600282015481526020016003820154815250508152602001906001019061019f565b50505050905090565b6000604051905090565b600080fd5b600080fd5b6000819050919050565b6102b18161029e565b81146102bc57600080fd5b50565b6000813590506102ce816102a8565b92915050565b600080fd5b600080fd5b6000601f19601f8301169050919050565b7f4e487b7100000000000000000000000000000000000000000000000000000000600052604160045260246000fd5b610327826102de565b810181811067ffffffffffffffff82111715610346576103456102ef565b5b80604052505050565b600061035961028a565b9050610365828261031e565b919050565b600067ffffffffffffffff821115610385576103846102ef565b5b61038e826102de565b9050602081019050919050565b82818337600083830152505050565b60006103bd6103b88461036a565b61034f565b9050828152602081018484840111156103d9576103d86102d9565b5b6103e484828561039b565b509392505050565b600082601f830112610401576104006102d4565b5b81356104118482602086016103aa565b91505092915050565b6000806000806080858703121561043457610433610294565b5b6000610442878288016102bf565b945050602085013567ffffffffffffffff81111561046357610462610299565b5b61046f878288016103ec565b9350506040610480878288016102bf565b9250506060610491878288016102bf565b91505092959194509250565b600081519050919050565b600082825260208201905092915050565b6000819050602082019050919050565b6104d28161029e565b82525050565b600081519050919050565b600082825260208201905092915050565b60005b838110156105125780820151818401526020810190506104f7565b60008484015250505050565b6000610529826104d8565b61053381856104e3565b93506105438185602086016104f4565b61054c816102de565b840191505092915050565b600060808301600083015161056f60008601826104c9565b5060208301518482036020860152610587828261051e565b915050604083015161059c60408601826104c9565b5060608301516105af60608601826104c9565b508091505092915050565b60006105c68383610557565b905092915050565b6000602082019050919050565b60006105e68261049d565b6105f081856104a8565b935083602082028501610602856104b9565b8060005b8581101561063e578484038952815161061f85826105ba565b945061062a836105ce565b925060208a01995050600181019050610606565b50829750879550505050505092915050565b6000602082019050818103600083015261066a81846105db565b905092915050565b7f4e487b7100000000000000000000000000000000000000000000000000000000600052602260045260246000fd5b600060028204905060018216806106b957607f821691505b6020821081036106cc576106cb610672565b5b50919050565b60008190508160005260206000209050919050565b60006020601f8301049050919050565b600082821b905092915050565b6000600883026107347fffffffffffffffffffffffffffffffffffffffffffffffffffffffffffffffff826106f7565b61073e86836106f7565b95508019841693508086168417925050509392505050565b6000819050919050565b600061077b6107766107718461029e565b610756565b61029e565b9050919050565b6000819050919050565b61079583610760565b6107a96107a182610782565b848454610704565b825550505050565b600090565b6107be6107b1565b6107c981848461078c565b505050565b5b818110156107ed576107e26000826107b6565b6001810190506107cf565b5050565b601f82111561083257610803816106d2565b61080c846106e7565b8101602085101561081b578190505b61082f610827856106e7565b8301826107ce565b50505b505050565b600082821c905092915050565b600061085560001984600802610837565b1980831691505092915050565b600061086e8383610844565b9150826002028217905092915050565b610887826104d8565b67ffffffffffffffff8111156108a05761089f6102ef565b5b6108aa82546106a1565b6108b58282856107f1565b600060209050601f8311600181146108e857600084156108d6578287015190505b6108e08582610862565b865550610948565b601f1984166108f6866106d2565b60005b8281101561091e578489015182556001820191506020850194506020810190506108f9565b8683101561093b5784890151610937601f891682610844565b8355505b6001600288020188555050505b50505050505056fea2646970667358221220ed849d007d4f8bd2b163a491452201d478e00668da89748c3c1e558dc68c68ea64736f6c63430008130033",
  "immutableReferences": {},
  "source": "\r\n// SPDX-License-Identifier: MIT\r\npragma solidity ^0.8.0;\r\n\r\ncontract TransactionManagement {\r\n    struct Transaction {\r\n        uint256 date;\r\n        string wasteType;\r\n        uint256 quantity;\r\n        uint256 price;\r\n    }\r\n\r\n    // Mapping to store transactions for each recycling center\r\n    mapping(address => Transaction[]) private recyclingCenterTransactions;\r\n\r\n    // Function to add a transaction for a recycling center\r\n    function addTransaction(\r\n        uint256 date,\r\n        string memory wasteType,\r\n        uint256 quantity,\r\n        uint256 price\r\n    ) public {\r\n        Transaction memory newTransaction = Transaction(date, wasteType, quantity, price);\r\n        recyclingCenterTransactions[msg.sender].push(newTransaction);\r\n    }\r\n\r\n    // Function to get all transactions for a recycling center\r\n    function getTransactions() public view returns (Transaction[] memory) {\r\n        return recyclingCenterTransactions[msg.sender];\r\n    }\r\n}\r\n",
  "sourcePath": "C:\\Users\\yousf\\Bureau\\SummerCamp\\blockchain\\contracts\\TransactionManagement.sol",
  "compiler": {
    "name": "solc",
    "version": "0.8.19+commit.7dd6d404.Emscripten.clang"
  },
  "schemaVersion": "3.4.13",
  "updatedAt": "2023-07-20T13:53:38.401Z",
  "devdoc": {
    "kind": "dev",
    "methods": {},
    "version": 1
  },
  "userdoc": {
    "kind": "user",
    "methods": {},
    "version": 1
  }
}