{
  "contractName": "TransactionManagement",
  "abi": [
    {
      "anonymous": false,
      "inputs": [
        {
          "indexed": false,
          "internalType": "address",
          "name": "rc",
          "type": "address"
        },
        {
          "indexed": false,
          "internalType": "uint256",
          "name": "date",
          "type": "uint256"
        },
        {
          "indexed": false,
          "internalType": "string",
          "name": "wasteType",
          "type": "string"
        },
        {
          "indexed": false,
          "internalType": "uint256",
          "name": "quantity",
          "type": "uint256"
        },
        {
          "indexed": false,
          "internalType": "uint256",
          "name": "price",
          "type": "uint256"
        }
      ],
      "name": "TransactionAdded",
      "type": "event"
    },
    {
      "anonymous": false,
      "inputs": [
        {
          "indexed": false,
          "internalType": "address",
          "name": "rc",
          "type": "address"
        },
        {
          "components": [
            {
              "internalType": "uint256",
              "name": "date",
              "type": "uint256"
            },
            {
              "internalType": "string",
              "name": "wasteType",
              "type": "string"
            },
            {
              "internalType": "uint256",
              "name": "quantity",
              "type": "uint256"
            },
            {
              "internalType": "uint256",
              "name": "price",
              "type": "uint256"
            }
          ],
          "indexed": false,
          "internalType": "struct TransactionManagement.Transaction[]",
          "name": "tr",
          "type": "tuple[]"
        }
      ],
      "name": "TransactionsEvent",
      "type": "event"
    },
    {
      "inputs": [
        {
          "internalType": "uint256",
          "name": "date",
          "type": "uint256"
        },
        {
          "internalType": "string",
          "name": "wasteType",
          "type": "string"
        },
        {
          "internalType": "uint256",
          "name": "quantity",
          "type": "uint256"
        },
        {
          "internalType": "uint256",
          "name": "price",
          "type": "uint256"
        }
      ],
      "name": "addTransaction",
      "outputs": [],
      "stateMutability": "nonpayable",
      "type": "function"
    },
    {
      "inputs": [],
      "name": "getTransactions",
      "outputs": [
        {
          "components": [
            {
              "internalType": "uint256",
              "name": "date",
              "type": "uint256"
            },
            {
              "internalType": "string",
              "name": "wasteType",
              "type": "string"
            },
            {
              "internalType": "uint256",
              "name": "quantity",
              "type": "uint256"
            },
            {
              "internalType": "uint256",
              "name": "price",
              "type": "uint256"
            }
          ],
          "internalType": "struct TransactionManagement.Transaction[]",
          "name": "",
          "type": "tuple[]"
        }
      ],
      "stateMutability": "nonpayable",
      "type": "function"
    }
  ],
  "bytecode": "0x608060405234801561001057600080fd5b50610b28806100206000396000f3fe608060405234801561001057600080fd5b50600436106100365760003560e01c80635bec51811461003b57806383920e9014610057575b600080fd5b61005560048036038101906100509190610498565b610075565b005b61005f61017e565b60405161006c91906106ce565b60405180910390f35b600060405180608001604052808681526020018581526020018481526020018381525090506000803373ffffffffffffffffffffffffffffffffffffffff1673ffffffffffffffffffffffffffffffffffffffff16815260200190815260200160002081908060018154018082558091505060019003906000526020600020906004020160009091909190915060008201518160000155602082015181600101908161012191906108fc565b50604082015181600201556060820151816003015550507fff321b3040d5600d79cba6a3951980235ae0a2c4a05d17dc3c0b8070a53ddacf338686868660405161016f959493929190610a68565b60405180910390a15050505050565b606060008060003373ffffffffffffffffffffffffffffffffffffffff1673ffffffffffffffffffffffffffffffffffffffff168152602001908152602001600020805480602002602001604051908101604052809291908181526020016000905b828210156102c257838290600052602060002090600402016040518060800160405290816000820154815260200160018201805461021d9061071f565b80601f01602080910402602001604051908101604052809291908181526020018280546102499061071f565b80156102965780601f1061026b57610100808354040283529160200191610296565b820191906000526020600020905b81548152906001019060200180831161027957829003601f168201915b5050505050815260200160028201548152602001600382015481525050815260200190600101906101e0565b5050505090507ff9735a738d83d72c976327ac1dfb6380ba55d3b2bb76352a44a390fa8f26664433826040516102f9929190610ac2565b60405180910390a18091505090565b6000604051905090565b600080fd5b600080fd5b6000819050919050565b61032f8161031c565b811461033a57600080fd5b50565b60008135905061034c81610326565b92915050565b600080fd5b600080fd5b6000601f19601f8301169050919050565b7f4e487b7100000000000000000000000000000000000000000000000000000000600052604160045260246000fd5b6103a58261035c565b810181811067ffffffffffffffff821117156103c4576103c361036d565b5b80604052505050565b60006103d7610308565b90506103e3828261039c565b919050565b600067ffffffffffffffff8211156104035761040261036d565b5b61040c8261035c565b9050602081019050919050565b82818337600083830152505050565b600061043b610436846103e8565b6103cd565b90508281526020810184848401111561045757610456610357565b5b610462848285610419565b509392505050565b600082601f83011261047f5761047e610352565b5b813561048f848260208601610428565b91505092915050565b600080600080608085870312156104b2576104b1610312565b5b60006104c08782880161033d565b945050602085013567ffffffffffffffff8111156104e1576104e0610317565b5b6104ed8782880161046a565b93505060406104fe8782880161033d565b925050606061050f8782880161033d565b91505092959194509250565b600081519050919050565b600082825260208201905092915050565b6000819050602082019050919050565b6105508161031c565b82525050565b600081519050919050565b600082825260208201905092915050565b60005b83811015610590578082015181840152602081019050610575565b60008484015250505050565b60006105a782610556565b6105b18185610561565b93506105c1818560208601610572565b6105ca8161035c565b840191505092915050565b60006080830160008301516105ed6000860182610547565b5060208301518482036020860152610605828261059c565b915050604083015161061a6040860182610547565b50606083015161062d6060860182610547565b508091505092915050565b600061064483836105d5565b905092915050565b6000602082019050919050565b60006106648261051b565b61066e8185610526565b93508360208202850161068085610537565b8060005b858110156106bc578484038952815161069d8582610638565b94506106a88361064c565b925060208a01995050600181019050610684565b50829750879550505050505092915050565b600060208201905081810360008301526106e88184610659565b905092915050565b7f4e487b7100000000000000000000000000000000000000000000000000000000600052602260045260246000fd5b6000600282049050600182168061073757607f821691505b60208210810361074a576107496106f0565b5b50919050565b60008190508160005260206000209050919050565b60006020601f8301049050919050565b600082821b905092915050565b6000600883026107b27fffffffffffffffffffffffffffffffffffffffffffffffffffffffffffffffff82610775565b6107bc8683610775565b95508019841693508086168417925050509392505050565b6000819050919050565b60006107f96107f46107ef8461031c565b6107d4565b61031c565b9050919050565b6000819050919050565b610813836107de565b61082761081f82610800565b848454610782565b825550505050565b600090565b61083c61082f565b61084781848461080a565b505050565b5b8181101561086b57610860600082610834565b60018101905061084d565b5050565b601f8211156108b05761088181610750565b61088a84610765565b81016020851015610899578190505b6108ad6108a585610765565b83018261084c565b50505b505050565b600082821c905092915050565b60006108d3600019846008026108b5565b1980831691505092915050565b60006108ec83836108c2565b9150826002028217905092915050565b61090582610556565b67ffffffffffffffff81111561091e5761091d61036d565b5b610928825461071f565b61093382828561086f565b600060209050601f8311600181146109665760008415610954578287015190505b61095e85826108e0565b8655506109c6565b601f19841661097486610750565b60005b8281101561099c57848901518255600182019150602085019450602081019050610977565b868310156109b957848901516109b5601f8916826108c2565b8355505b6001600288020188555050505b505050505050565b600073ffffffffffffffffffffffffffffffffffffffff82169050919050565b60006109f9826109ce565b9050919050565b610a09816109ee565b82525050565b610a188161031c565b82525050565b600082825260208201905092915050565b6000610a3a82610556565b610a448185610a1e565b9350610a54818560208601610572565b610a5d8161035c565b840191505092915050565b600060a082019050610a7d6000830188610a00565b610a8a6020830187610a0f565b8181036040830152610a9c8186610a2f565b9050610aab6060830185610a0f565b610ab86080830184610a0f565b9695505050505050565b6000604082019050610ad76000830185610a00565b8181036020830152610ae98184610659565b9050939250505056fea264697066735822122046a01eed1c970772856fb8a46223a8f47e7fc04da3c10dea7fa6b665565d296f64736f6c63430008130033",
  "immutableReferences": {},
  "source": "\r\n// SPDX-License-Identifier: MIT\r\npragma solidity ^0.8.0;\r\ncontract TransactionManagement {\r\n\r\n    struct Transaction {\r\n        uint256 date;\r\n        string wasteType;\r\n        uint256 quantity;\r\n        uint256 price;\r\n    }\r\n\r\n    // Mapping to store transactions for each recycling center\r\n    mapping(address => Transaction[]) private recyclingCenterTransactions;\r\n    event TransactionAdded(address rc,uint256 date,string wasteType,uint256 quantity,uint256 price);\r\n    // Function to add a transaction for a recycling center\r\n    function addTransaction(\r\n        uint256 date,\r\n        string memory wasteType,\r\n        uint256 quantity,\r\n        uint256 price\r\n    ) public {\r\n        Transaction memory newTransaction = Transaction(date, wasteType, quantity, price);\r\n        recyclingCenterTransactions[msg.sender].push(newTransaction);\r\n        emit TransactionAdded(msg.sender, date, wasteType, quantity, price);\r\n    }\r\n    event TransactionsEvent(address rc,Transaction[] tr);\r\n    // Function to get all transactions for a recycling center\r\n    function getTransactions() public returns (Transaction[] memory) {\r\n         Transaction[] memory transactions = recyclingCenterTransactions[msg.sender];\r\n         emit TransactionsEvent(msg.sender,transactions); \r\n         return transactions;\r\n    }\r\n}\r\n",
  "sourcePath": "C:\\Users\\yousf\\Bureau\\SummerCamp\\bricolini\\blockchain\\contracts\\TransactionManagement.sol",
  "compiler": {
    "name": "solc",
    "version": "0.8.19+commit.7dd6d404.Emscripten.clang"
  },
  "schemaVersion": "3.4.13",
  "updatedAt": "2023-07-24T10:59:16.340Z",
  "networkType": "ethereum",
  "devdoc": {
    "kind": "dev",
    "methods": {},
    "version": 1
  },
  "userdoc": {
    "kind": "user",
    "methods": {},
    "version": 1
  }
}